:020000040000FA
:1000000002EF00F0F86AD09EEA6AE96AB886080E44
:10001000AF6E020EB06EA60EAC6E900EAB6EC150FF
:10002000C00B0F09C16E070EB46EC150C00B0E0994
:10003000C16EC090C092C094C09EC2809698C69A6D
:10004000949E93809392010EC66E000EC76ED1905F
:10005000800ED56ECD6A000ECA6E000ECB6E070EF6
:10006000B46E9250926E100E006E002EFED70000FD
:10007000B450A19CB56A000E016EC250C30B0110B2
:10008000C26EC282C2B2FED7C4CF05F0530E006E5C
:10009000002EFED705507F0803E293908A8002D09D
:0800A00093908A90EED7030053
:020000040030CA
:0E0000003FCE390E0087A1000FC00FE00F4069
:00000001FF
;PIC18F4550
;CRC=29BD  CREATED="04-fev-14 22:11"
